{"abi":[{"type":"constructor","inputs":[{"name":"_batchRegistry","type":"address","internalType":"address"},{"name":"_changeNotice","type":"address","internalType":"address"}],"stateMutability":"nonpayable"},{"type":"function","name":"batchRegistry","inputs":[],"outputs":[{"name":"","type":"address","internalType":"contract IBatchRegistry"}],"stateMutability":"view"},{"type":"function","name":"batchRoots","inputs":[{"name":"","type":"string","internalType":"string"}],"outputs":[{"name":"","type":"bytes32","internalType":"bytes32"}],"stateMutability":"view"},{"type":"function","name":"changeNotice","inputs":[],"outputs":[{"name":"","type":"address","internalType":"contract IChangeNotice"}],"stateMutability":"view"},{"type":"function","name":"getRoot","inputs":[{"name":"batchId","type":"string","internalType":"string"}],"outputs":[{"name":"","type":"bytes32","internalType":"bytes32"}],"stateMutability":"view"},{"type":"function","name":"owner","inputs":[],"outputs":[{"name":"","type":"address","internalType":"address"}],"stateMutability":"view"},{"type":"function","name":"submitRoot","inputs":[{"name":"batchId","type":"string","internalType":"string"},{"name":"root","type":"bytes32","internalType":"bytes32"}],"outputs":[],"stateMutability":"nonpayable"},{"type":"function","name":"verifyRoot","inputs":[{"name":"batchId","type":"string","internalType":"string"},{"name":"proposedRoot","type":"bytes32","internalType":"bytes32"}],"outputs":[{"name":"","type":"bool","internalType":"bool"}],"stateMutability":"view"},{"type":"event","name":"RootSubmitted","inputs":[{"name":"batchId","type":"string","indexed":true,"internalType":"string"},{"name":"root","type":"bytes32","indexed":false,"internalType":"bytes32"}],"anonymous":false}],"bytecode":{"object":"0x608060405234801561000f575f5ffd5b50604051610a55380380610a5583398181016040528101906100319190610156565b3360015f6101000a81548173ffffffffffffffffffffffffffffffffffffffff021916908373ffffffffffffffffffffffffffffffffffffffff1602179055508160025f6101000a81548173ffffffffffffffffffffffffffffffffffffffff021916908373ffffffffffffffffffffffffffffffffffffffff1602179055508060035f6101000a81548173ffffffffffffffffffffffffffffffffffffffff021916908373ffffffffffffffffffffffffffffffffffffffff1602179055505050610194565b5f5ffd5b5f73ffffffffffffffffffffffffffffffffffffffff82169050919050565b5f610125826100fc565b9050919050565b6101358161011b565b811461013f575f5ffd5b50565b5f815190506101508161012c565b92915050565b5f5f6040838503121561016c5761016b6100f8565b5b5f61017985828601610142565b925050602061018a85828601610142565b9150509250929050565b6108b4806101a15f395ff3fe608060405234801561000f575f5ffd5b506004361061007b575f3560e01c8063aa40b77b11610059578063aa40b77b146100eb578063b506acf914610109578063c42ec3f714610139578063c965c825146101555761007b565b8063222172241461007f5780638da5cb5b146100af578063a671c6e1146100cd575b5f5ffd5b61009960048036038101906100949190610502565b610185565b6040516100a69190610561565b60405180910390f35b6100b76101ab565b6040516100c491906105b9565b60405180910390f35b6100d56101d0565b6040516100e2919061062d565b60405180910390f35b6100f36101f5565b6040516101009190610666565b60405180910390f35b610123600480360381019061011e9190610502565b61021a565b6040516101309190610561565b60405180910390f35b610153600480360381019061014e91906106a9565b610246565b005b61016f600480360381019061016a91906106a9565b61038c565b60405161017c919061071d565b60405180910390f35b5f5f826040516101959190610788565b9081526020016040518091039020549050919050565b60015f9054906101000a900473ffffffffffffffffffffffffffffffffffffffff1681565b60035f9054906101000a900473ffffffffffffffffffffffffffffffffffffffff1681565b60025f9054906101000a900473ffffffffffffffffffffffffffffffffffffffff1681565b5f818051602081018201805184825260208301602085012081835280955050505050505f915090505481565b60015f9054906101000a900473ffffffffffffffffffffffffffffffffffffffff1673ffffffffffffffffffffffffffffffffffffffff163373ffffffffffffffffffffffffffffffffffffffff16146102d5576040517f08c379a00000000000000000000000000000000000000000000000000000000081526004016102cc906107f8565b60405180910390fd5b5f5f1b8103610319576040517f08c379a000000000000000000000000000000000000000000000000000000000815260040161031090610860565b60405180910390fd5b805f836040516103299190610788565b908152602001604051809103902081905550816040516103499190610788565b60405180910390207fab0872fa61ae0e313fb16dc355236b64150de0316b81eafcc3b5f479d17e4657826040516103809190610561565b60405180910390a25050565b5f815f8460405161039d9190610788565b90815260200160405180910390205414905092915050565b5f604051905090565b5f5ffd5b5f5ffd5b5f5ffd5b5f5ffd5b5f601f19601f8301169050919050565b7f4e487b71000000000000000000000000000000000000000000000000000000005f52604160045260245ffd5b610414826103ce565b810181811067ffffffffffffffff82111715610433576104326103de565b5b80604052505050565b5f6104456103b5565b9050610451828261040b565b919050565b5f67ffffffffffffffff8211156104705761046f6103de565b5b610479826103ce565b9050602081019050919050565b828183375f83830152505050565b5f6104a66104a184610456565b61043c565b9050828152602081018484840111156104c2576104c16103ca565b5b6104cd848285610486565b509392505050565b5f82601f8301126104e9576104e86103c6565b5b81356104f9848260208601610494565b91505092915050565b5f60208284031215610517576105166103be565b5b5f82013567ffffffffffffffff811115610534576105336103c2565b5b610540848285016104d5565b91505092915050565b5f819050919050565b61055b81610549565b82525050565b5f6020820190506105745f830184610552565b92915050565b5f73ffffffffffffffffffffffffffffffffffffffff82169050919050565b5f6105a38261057a565b9050919050565b6105b381610599565b82525050565b5f6020820190506105cc5f8301846105aa565b92915050565b5f819050919050565b5f6105f56105f06105eb8461057a565b6105d2565b61057a565b9050919050565b5f610606826105db565b9050919050565b5f610617826105fc565b9050919050565b6106278161060d565b82525050565b5f6020820190506106405f83018461061e565b92915050565b5f610650826105fc565b9050919050565b61066081610646565b82525050565b5f6020820190506106795f830184610657565b92915050565b61068881610549565b8114610692575f5ffd5b50565b5f813590506106a38161067f565b92915050565b5f5f604083850312156106bf576106be6103be565b5b5f83013567ffffffffffffffff8111156106dc576106db6103c2565b5b6106e8858286016104d5565b92505060206106f985828601610695565b9150509250929050565b5f8115159050919050565b61071781610703565b82525050565b5f6020820190506107305f83018461070e565b92915050565b5f81519050919050565b5f81905092915050565b8281835e5f83830152505050565b5f61076282610736565b61076c8185610740565b935061077c81856020860161074a565b80840191505092915050565b5f6107938284610758565b915081905092915050565b5f82825260208201905092915050565b7f4e6f7420617574686f72697a65640000000000000000000000000000000000005f82015250565b5f6107e2600e8361079e565b91506107ed826107ae565b602082019050919050565b5f6020820190508181035f83015261080f816107d6565b9050919050565b7f526f6f742063616e6e6f74206265207a65726f000000000000000000000000005f82015250565b5f61084a60138361079e565b915061085582610816565b602082019050919050565b5f6020820190508181035f8301526108778161083e565b905091905056fea26469706673582212206004d6a49cfba6203475be729e253afb8e8fcb3aa9f9e4d05387b00e6e4722a464736f6c634300081e0033","linkReferences":{}},"methodIdentifiers":{"batchRegistry()":"aa40b77b","batchRoots(string)":"b506acf9","changeNotice()":"a671c6e1","getRoot(string)":"22217224","owner()":"8da5cb5b","submitRoot(string,bytes32)":"c42ec3f7","verifyRoot(string,bytes32)":"c965c825"},"id":0}