{"abi":[{"type":"constructor","inputs":[{"name":"initialOperator","type":"address","internalType":"address"}],"stateMutability":"nonpayable"},{"type":"function","name":"advanceLifecycle","inputs":[{"name":"batchId","type":"uint256","internalType":"uint256"},{"name":"newState","type":"uint8","internalType":"enum BatchRegistry.State"}],"outputs":[],"stateMutability":"nonpayable"},{"type":"function","name":"createBatch","inputs":[{"name":"externalId","type":"bytes32","internalType":"bytes32"},{"name":"metadataURI","type":"string","internalType":"string"},{"name":"metadataHash","type":"bytes32","internalType":"bytes32"}],"outputs":[{"name":"batchId","type":"uint256","internalType":"uint256"}],"stateMutability":"nonpayable"},{"type":"function","name":"getBatch","inputs":[{"name":"batchId","type":"uint256","internalType":"uint256"}],"outputs":[{"name":"creator","type":"address","internalType":"address"},{"name":"createdAt","type":"uint64","internalType":"uint64"},{"name":"state","type":"uint8","internalType":"enum BatchRegistry.State"},{"name":"metadataURI","type":"string","internalType":"string"},{"name":"metadataHash","type":"bytes32","internalType":"bytes32"},{"name":"externalId","type":"bytes32","internalType":"bytes32"},{"name":"exists","type":"bool","internalType":"bool"}],"stateMutability":"view"},{"type":"function","name":"getState","inputs":[{"name":"batchId","type":"uint256","internalType":"uint256"}],"outputs":[{"name":"","type":"uint8","internalType":"uint8"}],"stateMutability":"view"},{"type":"function","name":"isTerminalState","inputs":[{"name":"batchId","type":"uint256","internalType":"uint256"}],"outputs":[{"name":"","type":"bool","internalType":"bool"}],"stateMutability":"view"},{"type":"function","name":"operator","inputs":[],"outputs":[{"name":"","type":"address","internalType":"address"}],"stateMutability":"view"},{"type":"function","name":"owner","inputs":[],"outputs":[{"name":"","type":"address","internalType":"address"}],"stateMutability":"view"},{"type":"function","name":"recall","inputs":[{"name":"batchId","type":"uint256","internalType":"uint256"},{"name":"reason","type":"string","internalType":"string"}],"outputs":[],"stateMutability":"nonpayable"},{"type":"function","name":"setOperator","inputs":[{"name":"newOperator","type":"address","internalType":"address"}],"outputs":[],"stateMutability":"nonpayable"},{"type":"function","name":"updateMetadata","inputs":[{"name":"batchId","type":"uint256","internalType":"uint256"},{"name":"newURI","type":"string","internalType":"string"},{"name":"newHash","type":"bytes32","internalType":"bytes32"}],"outputs":[],"stateMutability":"nonpayable"},{"type":"event","name":"Advance","inputs":[{"name":"batchId","type":"uint256","indexed":true,"internalType":"uint256"},{"name":"from","type":"uint8","indexed":false,"internalType":"enum BatchRegistry.State"},{"name":"to","type":"uint8","indexed":false,"internalType":"enum BatchRegistry.State"}],"anonymous":false},{"type":"event","name":"CreateBatch","inputs":[{"name":"batchId","type":"uint256","indexed":true,"internalType":"uint256"},{"name":"creator","type":"address","indexed":true,"internalType":"address"},{"name":"externalId","type":"bytes32","indexed":true,"internalType":"bytes32"},{"name":"metadataURI","type":"string","indexed":false,"internalType":"string"},{"name":"metadataHash","type":"bytes32","indexed":false,"internalType":"bytes32"}],"anonymous":false},{"type":"event","name":"MetadataUpdated","inputs":[{"name":"batchId","type":"uint256","indexed":true,"internalType":"uint256"},{"name":"oldURI","type":"string","indexed":false,"internalType":"string"},{"name":"oldHash","type":"bytes32","indexed":false,"internalType":"bytes32"},{"name":"newURI","type":"string","indexed":false,"internalType":"string"},{"name":"newHash","type":"bytes32","indexed":false,"internalType":"bytes32"}],"anonymous":false},{"type":"event","name":"Recall","inputs":[{"name":"batchId","type":"uint256","indexed":true,"internalType":"uint256"},{"name":"reason","type":"string","indexed":false,"internalType":"string"}],"anonymous":false},{"type":"error","name":"AlreadyTerminal","inputs":[{"name":"s","type":"uint8","internalType":"enum BatchRegistry.State"}]},{"type":"error","name":"BadInput","inputs":[]},{"type":"error","name":"ExternalIdUsed","inputs":[]},{"type":"error","name":"InvalidTransition","inputs":[{"name":"from","type":"uint8","internalType":"enum BatchRegistry.State"},{"name":"to","type":"uint8","internalType":"enum BatchRegistry.State"}]},{"type":"error","name":"MetadataHashUsed","inputs":[]},{"type":"error","name":"NotFound","inputs":[]},{"type":"error","name":"Unauthorized","inputs":[]}],"bytecode":{"object":"0x608060405234801561000f575f5ffd5b50604051611df3380380611df38339818101604052810190610031919061014f565b3360045f6101000a81548173ffffffffffffffffffffffffffffffffffffffff021916908373ffffffffffffffffffffffffffffffffffffffff1602179055505f73ffffffffffffffffffffffffffffffffffffffff168173ffffffffffffffffffffffffffffffffffffffff16146100aa57806100ac565b335b60055f6101000a81548173ffffffffffffffffffffffffffffffffffffffff021916908373ffffffffffffffffffffffffffffffffffffffff1602179055505061017a565b5f5ffd5b5f73ffffffffffffffffffffffffffffffffffffffff82169050919050565b5f61011e826100f5565b9050919050565b61012e81610114565b8114610138575f5ffd5b50565b5f8151905061014981610125565b92915050565b5f60208284031215610164576101636100f1565b5b5f6101718482850161013b565b91505092915050565b611c6c806101875f395ff3fe608060405234801561000f575f5ffd5b506004361061009c575f3560e01c80635ac44282116100645780635ac44282146101565780636b80bf0c1461018c5780638da5cb5b146101bc578063b3ab15fb146101da578063d04c45c2146101f65761009c565b80633354a52d146100a057806338d44ad5146100d05780633eeb46dc146100ec57806344c9af2814610108578063570ca73514610138575b5f5ffd5b6100ba60048036038101906100b591906111b0565b610212565b6040516100c791906111f5565b60405180910390f35b6100ea60048036038101906100e5919061126f565b61023b565b005b610106600480360381019061010191906112ff565b6103d4565b005b610122600480360381019061011d91906111b0565b610629565b60405161012f919061138b565b60405180910390f35b61014061065c565b60405161014d91906113e3565b60405180910390f35b610170600480360381019061016b91906111b0565b610681565b6040516101839796959493929190611510565b60405180910390f35b6101a660048036038101906101a19190611584565b6107ac565b6040516101b39190611604565b60405180910390f35b6101c4610b49565b6040516101d191906113e3565b60405180910390f35b6101f460048036038101906101ef9190611647565b610b6e565b005b610210600480360381019061020b9190611695565b610c9c565b005b5f61023461021f83610eaf565b5f01601c9054906101000a900460ff16610f0f565b9050919050565b60055f9054906101000a900473ffffffffffffffffffffffffffffffffffffffff1673ffffffffffffffffffffffffffffffffffffffff163373ffffffffffffffffffffffffffffffffffffffff16146102c1576040517f82b4290000000000000000000000000000000000000000000000000000000000815260040160405180910390fd5b5f6102cb84610eaf565b90505f815f01601c9054906101000a900460ff1690506102ea81610f0f565b1561032c57806040517fc00481df00000000000000000000000000000000000000000000000000000000815260040161032391906116d3565b60405180910390fd5b6005825f01601c6101000a81548160ff021916908360068111156103535761035261141e565b5b0217905550847f738592a31c934f153286cc0766a62d97a8c360d684d5b7ea3e319ee2057fb415858560405161038a929190611726565b60405180910390a2847fa2c61648e5eba030a69ce0f6b36e8846d7d06ae7e9ec8b39a9b530d3d8c855cb8260056040516103c5929190611748565b60405180910390a25050505050565b60055f9054906101000a900473ffffffffffffffffffffffffffffffffffffffff1673ffffffffffffffffffffffffffffffffffffffff163373ffffffffffffffffffffffffffffffffffffffff161461045a576040517f82b4290000000000000000000000000000000000000000000000000000000000815260040160405180910390fd5b5f83839050148061046c57505f5f1b81145b156104a3576040517f2bb9acf700000000000000000000000000000000000000000000000000000000815260040160405180910390fd5b60035f8281526020019081526020015f205f9054906101000a900460ff16156104f8576040517f1cb2e1ae00000000000000000000000000000000000000000000000000000000815260040160405180910390fd5b5f61050285610eaf565b90505f5f8260010183600201549150805461051c9061179c565b80601f01602080910402602001604051908101604052809291908181526020018280546105489061179c565b80156105935780601f1061056a57610100808354040283529160200191610593565b820191905f5260205f20905b81548152906001019060200180831161057657829003601f168201915b5050505050915085858460010191826105ad9291906119a3565b50838360020181905550600160035f8681526020019081526020015f205f6101000a81548160ff021916908315150217905550867f111e206701fe441c4d6465633c7d03b6e0208ca1b79e8076bc9824435fecde888383898989604051610618959493929190611a70565b60405180910390a250505050505050565b5f61063382610eaf565b5f01601c9054906101000a900460ff1660068111156106555761065461141e565b5b9050919050565b60055f9054906101000a900473ffffffffffffffffffffffffffffffffffffffff1681565b5f5f5f60605f5f5f5f60015f8a81526020019081526020015f209050805f015f9054906101000a900473ffffffffffffffffffffffffffffffffffffffff16815f0160149054906101000a900467ffffffffffffffff16825f01601c9054906101000a900460ff168360010184600201548560030154866004015f9054906101000a900460ff168380546107149061179c565b80601f01602080910402602001604051908101604052809291908181526020018280546107409061179c565b801561078b5780601f106107625761010080835404028352916020019161078b565b820191905f5260205f20905b81548152906001019060200180831161076e57829003601f168201915b50505050509350975097509750975097509750975050919395979092949650565b5f5f5f1b8514806107be57505f5f1b82145b156107f5576040517f2bb9acf700000000000000000000000000000000000000000000000000000000815260040160405180910390fd5b5f8484905003610831576040517f2bb9acf700000000000000000000000000000000000000000000000000000000815260040160405180910390fd5b60025f8681526020019081526020015f205f9054906101000a900460ff1615610886576040517fb23be88100000000000000000000000000000000000000000000000000000000815260040160405180910390fd5b60035f8381526020019081526020015f205f9054906101000a900460ff16156108db576040517f1cb2e1ae00000000000000000000000000000000000000000000000000000000815260040160405180910390fd5b600160025f8781526020019081526020015f205f6101000a81548160ff021916908315150217905550600160035f8481526020019081526020015f205f6101000a81548160ff0219169083151502179055505f5f81548092919061093e90611af0565b9190505590506040518060e001604052803373ffffffffffffffffffffffffffffffffffffffff1681526020014267ffffffffffffffff1681526020015f600681111561098e5761098d61141e565b5b815260200185858080601f0160208091040260200160405190810160405280939291908181526020018383808284375f81840152601f19601f8201169050808301925050505050505081526020018381526020018681526020016001151581525060015f8381526020019081526020015f205f820151815f015f6101000a81548173ffffffffffffffffffffffffffffffffffffffff021916908373ffffffffffffffffffffffffffffffffffffffff1602179055506020820151815f0160146101000a81548167ffffffffffffffff021916908367ffffffffffffffff1602179055506040820151815f01601c6101000a81548160ff02191690836006811115610a9c57610a9b61141e565b5b02179055506060820151816001019081610ab69190611b37565b506080820151816002015560a0820151816003015560c0820151816004015f6101000a81548160ff021916908315150217905550905050843373ffffffffffffffffffffffffffffffffffffffff16827f9eeada908cbfd52cb7d984c4543f4650c1ed9c8a9f440538004d3cdf99c5a9d5878787604051610b3993929190611c06565b60405180910390a4949350505050565b60045f9054906101000a900473ffffffffffffffffffffffffffffffffffffffff1681565b60045f9054906101000a900473ffffffffffffffffffffffffffffffffffffffff1673ffffffffffffffffffffffffffffffffffffffff163373ffffffffffffffffffffffffffffffffffffffff1614610bf4576040517f82b4290000000000000000000000000000000000000000000000000000000000815260040160405180910390fd5b5f73ffffffffffffffffffffffffffffffffffffffff168173ffffffffffffffffffffffffffffffffffffffff1603610c59576040517f2bb9acf700000000000000000000000000000000000000000000000000000000815260040160405180910390fd5b8060055f6101000a81548173ffffffffffffffffffffffffffffffffffffffff021916908373ffffffffffffffffffffffffffffffffffffffff16021790555050565b60055f9054906101000a900473ffffffffffffffffffffffffffffffffffffffff1673ffffffffffffffffffffffffffffffffffffffff163373ffffffffffffffffffffffffffffffffffffffff1614610d22576040517f82b4290000000000000000000000000000000000000000000000000000000000815260040160405180910390fd5b5f610d2c83610eaf565b90505f815f01601c9054906101000a900460ff169050610d4b81610f0f565b15610d8d57806040517fc00481df000000000000000000000000000000000000000000000000000000008152600401610d8491906116d3565b60405180910390fd5b826006811115610da057610d9f61141e565b5b816006811115610db357610db261141e565b5b03610df75780836040517f2fef82f8000000000000000000000000000000000000000000000000000000008152600401610dee929190611748565b60405180910390fd5b610e018184610f9c565b610e445780836040517f2fef82f8000000000000000000000000000000000000000000000000000000008152600401610e3b929190611748565b60405180910390fd5b82825f01601c6101000a81548160ff02191690836006811115610e6a57610e6961141e565b5b0217905550837fa2c61648e5eba030a69ce0f6b36e8846d7d06ae7e9ec8b39a9b530d3d8c855cb8285604051610ea1929190611748565b60405180910390a250505050565b5f60015f8381526020019081526020015f209050806004015f9054906101000a900460ff16610f0a576040517fc5723b5100000000000000000000000000000000000000000000000000000000815260040160405180910390fd5b919050565b5f60046006811115610f2457610f2361141e565b5b826006811115610f3757610f3661141e565b5b1480610f67575060056006811115610f5257610f5161141e565b5b826006811115610f6557610f6461141e565b5b145b80610f955750600680811115610f8057610f7f61141e565b5b826006811115610f9357610f9261141e565b5b145b9050919050565b5f600680811115610fb057610faf61141e565b5b826006811115610fc357610fc261141e565b5b03610fd1576001905061116f565b5f6006811115610fe457610fe361141e565b5b836006811115610ff757610ff661141e565b5b0361105a57600160068111156110105761100f61141e565b5b8260068111156110235761102261141e565b5b148061105357506002600681111561103e5761103d61141e565b5b8260068111156110515761105061141e565b5b145b905061116f565b6001600681111561106e5761106d61141e565b5b8360068111156110815761108061141e565b5b036110b5576002600681111561109a5761109961141e565b5b8260068111156110ad576110ac61141e565b5b14905061116f565b600260068111156110c9576110c861141e565b5b8360068111156110dc576110db61141e565b5b0361111057600360068111156110f5576110f461141e565b5b8260068111156111085761110761141e565b5b14905061116f565b600360068111156111245761112361141e565b5b8360068111156111375761113661141e565b5b0361116b57600460068111156111505761114f61141e565b5b8260068111156111635761116261141e565b5b14905061116f565b5f90505b92915050565b5f5ffd5b5f5ffd5b5f819050919050565b61118f8161117d565b8114611199575f5ffd5b50565b5f813590506111aa81611186565b92915050565b5f602082840312156111c5576111c4611175565b5b5f6111d28482850161119c565b91505092915050565b5f8115159050919050565b6111ef816111db565b82525050565b5f6020820190506112085f8301846111e6565b92915050565b5f5ffd5b5f5ffd5b5f5ffd5b5f5f83601f84011261122f5761122e61120e565b5b8235905067ffffffffffffffff81111561124c5761124b611212565b5b60208301915083600182028301111561126857611267611216565b5b9250929050565b5f5f5f6040848603121561128657611285611175565b5b5f6112938682870161119c565b935050602084013567ffffffffffffffff8111156112b4576112b3611179565b5b6112c08682870161121a565b92509250509250925092565b5f819050919050565b6112de816112cc565b81146112e8575f5ffd5b50565b5f813590506112f9816112d5565b92915050565b5f5f5f5f6060858703121561131757611316611175565b5b5f6113248782880161119c565b945050602085013567ffffffffffffffff81111561134557611344611179565b5b6113518782880161121a565b93509350506040611364878288016112eb565b91505092959194509250565b5f60ff82169050919050565b61138581611370565b82525050565b5f60208201905061139e5f83018461137c565b92915050565b5f73ffffffffffffffffffffffffffffffffffffffff82169050919050565b5f6113cd826113a4565b9050919050565b6113dd816113c3565b82525050565b5f6020820190506113f65f8301846113d4565b92915050565b5f67ffffffffffffffff82169050919050565b611418816113fc565b82525050565b7f4e487b71000000000000000000000000000000000000000000000000000000005f52602160045260245ffd5b6007811061145c5761145b61141e565b5b50565b5f81905061146c8261144b565b919050565b5f61147b8261145f565b9050919050565b61148b81611471565b82525050565b5f81519050919050565b5f82825260208201905092915050565b8281835e5f83830152505050565b5f601f19601f8301169050919050565b5f6114d382611491565b6114dd818561149b565b93506114ed8185602086016114ab565b6114f6816114b9565b840191505092915050565b61150a816112cc565b82525050565b5f60e0820190506115235f83018a6113d4565b611530602083018961140f565b61153d6040830188611482565b818103606083015261154f81876114c9565b905061155e6080830186611501565b61156b60a0830185611501565b61157860c08301846111e6565b98975050505050505050565b5f5f5f5f6060858703121561159c5761159b611175565b5b5f6115a9878288016112eb565b945050602085013567ffffffffffffffff8111156115ca576115c9611179565b5b6115d68782880161121a565b935093505060406115e9878288016112eb565b91505092959194509250565b6115fe8161117d565b82525050565b5f6020820190506116175f8301846115f5565b92915050565b611626816113c3565b8114611630575f5ffd5b50565b5f813590506116418161161d565b92915050565b5f6020828403121561165c5761165b611175565b5b5f61166984828501611633565b91505092915050565b6007811061167e575f5ffd5b50565b5f8135905061168f81611672565b92915050565b5f5f604083850312156116ab576116aa611175565b5b5f6116b88582860161119c565b92505060206116c985828601611681565b9150509250929050565b5f6020820190506116e65f830184611482565b92915050565b828183375f83830152505050565b5f611705838561149b565b93506117128385846116ec565b61171b836114b9565b840190509392505050565b5f6020820190508181035f83015261173f8184866116fa565b90509392505050565b5f60408201905061175b5f830185611482565b6117686020830184611482565b9392505050565b7f4e487b71000000000000000000000000000000000000000000000000000000005f52602260045260245ffd5b5f60028204905060018216806117b357607f821691505b6020821081036117c6576117c561176f565b5b50919050565b5f82905092915050565b7f4e487b71000000000000000000000000000000000000000000000000000000005f52604160045260245ffd5b5f819050815f5260205f209050919050565b5f6020601f8301049050919050565b5f82821b905092915050565b5f6008830261185f7fffffffffffffffffffffffffffffffffffffffffffffffffffffffffffffffff82611824565b6118698683611824565b95508019841693508086168417925050509392505050565b5f819050919050565b5f6118a461189f61189a8461117d565b611881565b61117d565b9050919050565b5f819050919050565b6118bd8361188a565b6118d16118c9826118ab565b848454611830565b825550505050565b5f5f905090565b6118e86118d9565b6118f38184846118b4565b505050565b5b818110156119165761190b5f826118e0565b6001810190506118f9565b5050565b601f82111561195b5761192c81611803565b61193584611815565b81016020851015611944578190505b61195861195085611815565b8301826118f8565b50505b505050565b5f82821c905092915050565b5f61197b5f1984600802611960565b1980831691505092915050565b5f611993838361196c565b9150826002028217905092915050565b6119ad83836117cc565b67ffffffffffffffff8111156119c6576119c56117d6565b5b6119d0825461179c565b6119db82828561191a565b5f601f831160018114611a08575f84156119f6578287013590505b611a008582611988565b865550611a67565b601f198416611a1686611803565b5f5b82811015611a3d57848901358255600182019150602085019450602081019050611a18565b86831015611a5a5784890135611a56601f89168261196c565b8355505b6001600288020188555050505b50505050505050565b5f6080820190508181035f830152611a8881886114c9565b9050611a976020830187611501565b8181036040830152611aaa8185876116fa565b9050611ab96060830184611501565b9695505050505050565b7f4e487b71000000000000000000000000000000000000000000000000000000005f52601160045260245ffd5b5f611afa8261117d565b91507fffffffffffffffffffffffffffffffffffffffffffffffffffffffffffffffff8203611b2c57611b2b611ac3565b5b600182019050919050565b611b4082611491565b67ffffffffffffffff811115611b5957611b586117d6565b5b611b63825461179c565b611b6e82828561191a565b5f60209050601f831160018114611b9f575f8415611b8d578287015190505b611b978582611988565b865550611bfe565b601f198416611bad86611803565b5f5b82811015611bd457848901518255600182019150602085019450602081019050611baf565b86831015611bf15784890151611bed601f89168261196c565b8355505b6001600288020188555050505b505050505050565b5f6040820190508181035f830152611c1f8185876116fa565b9050611c2e6020830184611501565b94935050505056fea2646970667358221220d5e8e18ac35fe7435607b396b67957e35f6180a294cbf73b312952be966c89cc64736f6c634300081e0033","linkReferences":{}},"methodIdentifiers":{"advanceLifecycle(uint256,uint8)":"d04c45c2","createBatch(bytes32,string,bytes32)":"6b80bf0c","getBatch(uint256)":"5ac44282","getState(uint256)":"44c9af28","isTerminalState(uint256)":"3354a52d","operator()":"570ca735","owner()":"8da5cb5b","recall(uint256,string)":"38d44ad5","setOperator(address)":"b3ab15fb","updateMetadata(uint256,string,bytes32)":"3eeb46dc"},"id":22}